:020000040800F2
:1000000020040020D50000088B0900088909000899
:1000100000000000000000000000000000000000E0
:10002000000000000000000000000000010A0008BD
:1000300000000000000000008D090008030A00080D
:100040000501000805010008050100080501000878
:100050000501000805010008050100080501000868
:100060000000000005010008050100080501000866
:100070000501000805010008000000000501000856
:100080000000000000000000000000000000000070
:100090000501000800000000000000000501000844
:1000A0000000000005010008000000000000000042
:1000B0000501000805010008000000000000000024
:1000C0000348854600F05AF8004800473D0B0008F9
:1000D000200400200C4880F308880C480168090EB1
:1000E0000B4A914205D10B480B4901600B480C4962
:1000F00001600C4880470C480047FEE7FEE7FEE73A
:10010000FEE7FEE7FEE700002004002004000000F8
:100110001F000000341002400100000000000140F8
:1001200000000000850A0008C100000830B50B4639
:10013000014600202022012409E00D46D5409D42C1
:1001400005D31D469540491B254695404019154647
:10015000521E002DF1DC30BDD2B201E00270401C15
:10016000491EFBD270470022F6E710B513460A4637
:1001700004461946FFF7F0FF204610BD064C012546
:10018000064E05E0E36807CC2B430C3C984710343F
:10019000B442F7D3FFF798FFA80B0008C80B00087C
:1001A00031B500F0BBF8044600F0B8F80099001B28
:1001B0008842F9D338BD0000F8B50023012498E047
:1001C00027469F403A4070D04D68022D01D0122D35
:1001D00014D1DD08AD002D1800952D6A5E07AC46E0
:1001E000F50E0F26AE46AE406546B543AC460E69E9
:1001F0007546AE4065462E43009D2E624D68012D2A
:1002000005D0022D03D0112D01D0122D16D18568F5
:100210000326AC465D00AE46AE406546B543AC46EF
:10022000CE687546AE4065462E43866046680D79B9
:10023000BE43ED06ED0F9D403543456006685F0007
:100240000325BD40AE46AE430D79B446AE07B60FAA
:10025000BE4065462E430660C6687546AE438D684F
:10026000BD403543C5604D68ED0041D5244D6E6BF2
:1002700026436E639E08234DB6007519AC46AD68E3
:100280009E07360F0F27B740BD4305273F07B842EB
:1002900001D100270BE01C4FB84201D1012706E035
:1002A0001A4FB84202D1022701E021E00627B740E9
:1002B0002F436546AF60164D2E684F689643FF0387
:1002C00000D516432E606E684F689643BF0300D575
:1002D00016436E60AE684F689643FF0200D5164322
:1002E000AE60EE684F689643BF0200D51643EE60DD
:1002F0005B1C0A681546DD4000D061E7F8BD0000D0
:1003000000100240000001400004005000080050AE
:100310000004014042694A40426170470148006858
:10032000704700000000002002480168491C01607D
:10033000704700000000002010B506480168022246
:1003400011430160032000F007F800F019F80020C5
:1003500010BD00000020024010B5044607487D2172
:10036000C9000068FFF7E2FE00F0F6FA002221461D
:10037000501E00F006F8002010BD00000400002010
:10038000704710B500F0A8FB10BD0000F8B5054699
:1003900053480E460068C007C00FB0420AD250480A
:1003A000016849084900314301600068C007C00F77
:1003B000B0426FD128784B4C800705D5E068F0211A
:1003C0008843A9680843E0602878C00752D068686D
:1003D000022817D0032818D02168012818D08905D1
:1003E000002957DAE168890889000143E160FFF7D5
:1003F00095FF69680746022912D003291CD00129FC
:1004000026D033E021688903EAE721688901E7E71C
:100410004907E5E7FFF782FFC11B3348814223D834
:10042000E0680007800F0228F4D123E0FFF776FF91
:10043000C11B2D48814217D8E0680007800F0328B0
:10044000F4D117E0FFF76AFFC11B274881420BD8A0
:10045000E0680007800F0128F4D10BE0FFF75EFF92
:10046000C11B2148814201D90320F8BDE068000783
:10047000800FF3D11A480168C907C90FB1420BD9DF
:10048000016849084900314301600068C007C00F96
:10049000B04201D00120F8BD2878400706D5E068B9
:1004A000072109028843E9680843E06028780007CB
:1004B00007D5E0680721C90288432969C9000843B4
:1004C000E06000F017F8E168084A0906090F515C7E
:1004D000C840074908600320FFF73EFF0020F8BD31
:1004E0000020024000100240881300008C0B00081E
:1004F0000400002010B5184AD1680C2008400428D8
:100500000BD0082810D00C2810D050680004410FE0
:100510000120C003491C884010BD1068C00601D5E9
:100520000E4810BD0E4810BD0E4810BD88020E4B7F
:10053000000F185C0902D368890F491CDB0301D541
:10054000084A05E01268D20601D5044A00E0044AD0
:100550005043FFF7EBFD10BD0010024000093D00C5
:100560000024F40000127A009C0B0008F8B5044641
:100570000078F24DC0074AD0E8680007800F0228D3
:1005800007D0E8680007800F032809D1E868C00396
:1005900006D5286880033AD56068002873D036E015
:1005A000012062680004824203D129680143296066
:1005B00011E0052301211B0489049A422A6802D113
:1005C0000A432A60F1E782432A602A6802400092C7
:1005D000286888432860606800280CD0FFF79EFEDA
:1005E000064604E0FFF79AFE801B64287ED8286840
:1005F0008003F7D50BE0FFF791FE064604E0FFF716
:100600008DFE801B6428F1D828688003F7D42078F9
:10061000800741D5E8681F270007800F3F020128A7
:1006200007D0E8680007800F032809D1E868C003F5
:1006300006D42868400717D5E068012823D113E0C5
:10064000E068002817D029680922914301432960F6
:10065000FFF764FE064604E0FFF760FE801B0228F9
:10066000C4D828684007F7D568682169B8430902EB
:100670000843686010E02868400840002860FFF7E1
:100680004DFE064605E090E0FFF748FE801B02287D
:10069000ACD828684007F7D42078C00676D5E8683B
:1006A000A74E0007800F0BD0A06900285DD02868F6
:1006B000FF21013108432860FFF730FE074644E080
:1006C0002868800502D5A06900286ED0206A696874
:1006D0003140884212D900F05BF90028AED1686839
:1006E000216AB04308436860686800E0BBE000022C
:1006F000217F000A0906084368600FE06968B1437A
:10070000014369606868217F0002000A0906084306
:100710006860206A00F03CF900288FD1206A410B04
:100720000120C003491C8840E96809060A0F854971
:10073000895CC840844908600320FFF70DFE25E06E
:10074000FFF7ECFDC01B02288AD828688005F7D582
:100750006868216AB043084368606868217F0002C6
:10076000000A09060843686010E02968FF2001308C
:1007700081432960FFF7D2FD064604E0FFF7CEFD76
:10078000801B02286FD828688005F7D420786F4E28
:10079000000723D560690028306910D00121084383
:1007A0003061FFF7BBFD074605E0C5E0FFF7B6FD8A
:1007B000C01B022857D830698007F7D50EE04008E3
:1007C00040003061FFF7AAFD074604E0FFF7A6FDF1
:1007D000C01B022847D830698007F7D4207840072B
:1007E00062D5A86B0027C00005D4A86B01210907BA
:1007F0000843A863012756480168C90511D4016858
:10080000821511430160FFF789FD009005E0FFF7B5
:1008100085FD0099401A642825D84D480068C00518
:10082000F5D5FF20A2680130824203D1316901432E
:10083000316111E001218902002A07D005231B0242
:100840009A4203D132690A433261EFE73269824347
:100850003261306988433061A06800280FD0FFF70B
:100860005DFD009007E060E0FFF758FD0099411A38
:100870003848814259D830698005F5D50DE0FFF739
:100880004DFD009006E0FFF749FD0099411A3148FF
:1008900081424AD830698005F5D4002F04D0A96B75
:1008A000012000078143A963606A002842D0E968FB
:1008B0000907890F03293FD0012636060228286838
:1008C00005D0B0432860FFF729FD04462FE0B04370
:1008D0002860FFF723FD074604E0FFF71FFDC01B5C
:1008E000022822D828688001F7D4E16AA06AEA6861
:1008F0000843216BFD231B049A4311430843E8601E
:10090000286830432860FFF709FD044604E0FFF73C
:1009100005FD001B022808D828688001F7D509E0EA
:10092000FFF7FCFC001B022801D90320F8BD286852
:100930008001F5D40020F8BD0120F8BD0010024070
:1009400000E000008C0B0008040000204010024072
:100950000070004088130000094910B5401E88420D
:1009600001D9012010BD074C60610321081F00F070
:10097000B3F80020A06107202061002010BD000016
:10098000FFFFFF0000E000E0FEE770477047000057
:1009900070B517490023CA681206120F18D18A6B66
:1009A000154CD500134A02D51268224009E08E6B1F
:1009B00001252D072E438E6312688E6B2240AE43B5
:1009C0008E63A24204D103218903884200D101230E
:1009D0000A48016849084900194301600068C007D6
:1009E000C00F984201D0012070BD002070BD0000F2
:1009F000001002400070004000180000002002407B
:100A0000704710B5FFF790FC10BD000010B592B014
:100A100014210DA8FFF7A7FB34216846FFF7A3FBBD
:100A2000102000900120069005204003002408902B
:100A3000079409946846FFF799FD002800D0FEE767
:100A40000F200D900E940F941094002111940DA876
:100A5000FFF79CFC002800D0FEE70848826B0104E9
:100A60000A438263064A13680324E40223431360A3
:100A7000826B8A43826312B010BD000000100240F6
:100A80000070004010480168821511430160C16880
:100A90000E4A1140C16001680D4A11400160816831
:100AA0004908490081600168012292049143016074
:100AB000C168FD2212049143C16000210161054912
:100AC000C003886070470000001002400C40FF889F
:100AD000F6FFF6FE00ED00E08307FF22DB0E9A40F2
:100AE0008907090E9940002808DB830809489B0004
:100AF0001B18186890430843186070470007000FE0
:100B00000838830804489B001B18D86990430843A1
:100B1000D861704700E400E000ED00E002E008C8A2
:100B2000121F08C1002AFAD170477047002001E067
:100B300001C1121F002AFBD17047000008B5FFF762
:100B4000FBFBFFF763FF0E48C26A02210A43C26241
:100B5000C06A0D4C084000900A4801214160816044
:100B60000321C1600821016001462046FFF724FBF4
:100B700008212046FFF7CEFB6420FFF711FBF7E7C3
:100B80000010024008000020000400500000000097
:100B90000000000001020304060708090304060818
:100BA0000C10182030000000C80B000800000020C6
:100BB000080000001C0B0008D00B000808000020F3
:100BC000180400002C0B00080000000080841E00A8
:04000005080000C12E
:00000001FF
