:020000040800F2
:10000000200400209D010008990B0008950B0008B2
:10001000970B000809020008E90C00080000000026
:10002000000000000000000000000000390C000883
:100030000B02000800000000BB0B00083B0C00088E
:10004000B7010008B7010008B7010008B7010008B0
:10005000B7010008B7010008B7010008B7010008A0
:10006000B7010008B7010008B7010008B701000890
:10007000B7010008B7010008B7010008B701000880
:10008000B7010008B7010008B7010008B701000870
:10009000B7010008B7010008B7010008B701000860
:1000A000B7010008B7010008B7010008B701000850
:1000B000B7010008B7010008B7010008B701000840
:1000C000B7010008B7010008B7010008B701000830
:1000D000B7010008B7010008B7010008B701000820
:1000E000B7010008B7010008B7010008B701000810
:1000F000B7010008B7010008B7010008B701000800
:10010000B7010008B7010008B7010008B7010008EF
:10011000B7010008B7010008B7010008B7010008DF
:10012000B7010008B7010008B7010008B7010008CF
:10013000B7010008B7010008B7010008B7010008BF
:10014000B7010008B7010008B7010008B7010008AF
:10015000B7010008B7010008B7010008B70100089F
:10016000B7010008B7010008B7010008B70100088F
:10017000B7010008B7010008B7010008000000003F
:10018000B7010008B7010008DFF80CD000F02AF82A
:1001900000480047090D0008200400200648804759
:1001A00006480047FEE7FEE7FEE7FEE7FEE7FEE75C
:1001B000FEE7FEE7FEE7FEE7A50C00088901000860
:1001C000D2B201E000F8012B491EFBD27047002299
:1001D000F6E710B513460A4604461946FFF7F0FF46
:1001E000204610BD064C074D06E0E06840F00103D4
:1001F00094E8070098471034AC42F6D3FFF7C8FFE5
:100200009C0D0008BC0D0008FEE7704770B5044661
:1002100000F0F0F80546601C00D0641C00F0EAF81D
:10022000401BA042FAD370BD2DE9F84FDFF898B11A
:1002300000234FF0010C4FF0030A4FF00F090BF1B0
:10024000040EB9E00CFA03F4224070D04D68022D80
:1002500001D0122D0ED1DD0800EB8508D8F8205012
:100260005E07F70E09FA07F6B5430E69BE402E4346
:10027000C8F8206007685E0091F804800AFA06F565
:1002800008F00308AF4308FA06F848EA0708C0F880
:1002900000804F68012F05D0022F03D0112F01D00D
:1002A000122F13D1D0F80880CF6828EA0508B7408C
:1002B00047EA08078760D0F804800F7928EA040825
:1002C000C7F300179F4047EA08074760D1F804804A
:1002D0006FEA0807BF0706D1C76AA743C8F3C0047F
:1002E0009C403C43C462C468AC438D68B540254320
:1002F000C5604C68E4005ED5344C256E45F00105C0
:100300002566246E23F0030504F001040094304CAC
:100310002E19B4689D072F0F09FA07F5AC43B0F109
:10032000904F05D02B4DA84204D101251CE042E09E
:10033000002519E0284DA84201D1022514E0274DDF
:10034000A84201D103250FE0254DA84201D1042583
:100350000AE0244DA84201D1052505E0224DA8421E
:1003600001D1062500E00725BD402543B560DBF837
:1003700000405D464E689443F60300D514432C605C
:10038000DEF8004075464E689443B60300D514432A
:100390002C600D4D08352C684E689443F60200D54C
:1003A00014432C60084D0C352C684E689443B602FB
:1003B00000D514432C605B1C0A6832FA03F57FF405
:1003C00041AFBDE8F88F000000040140001002407A
:1003D000000001400004004800080048000C0048EC
:1003E00000100048001400480018004842694A40C4
:1003F0004261704701480068704700000400002017
:1004000002480168491C0160704700000400002098
:1004100010B5032000F03EF80F2000F005F800F0C2
:1004200017F8002010BD000010B5044607484FF42F
:100430007A710068B0FBF1F000F098FB00222146D1
:10044000501E00F007F8002010BD00000000002042
:1004500070470000F0B40E4B1B680C46C3F3022338
:10046000C3F10705042D00D90425191D072901D260
:10047000002300E0DB1E012606FA05F1491E21409B
:1004800099409E40761E16403143F0BC00F085BB7B
:100490000CED00E0064900F0070208684FF6FF0384
:1004A000184040EA0220034A1043086070470000E9
:1004B0000CED00E00000FA050248006800F4C0609E
:1004C00070470000007000402DE9F047DFF86081C0
:1004D00005460E46D8F8000000F00700B0420CD2E6
:1004E000D8F8001021F007013143C8F80010D8F8FF
:1004F000000000F00700B04275D128784D4CC007CD
:1005000057D06868032818D0022819D02168D0B1C4
:100510004905002967DAA16821F003010143A160C0
:10052000FFF768FF6968074641F28830032913D056
:1005300002291FD0814651B336E021688901E8E7DE
:1005400021688903E5E78907E3E700BFFFF752FF6A
:10055000C11B494501D924E08146A068C0F3810050
:100560000328F3D125E000BFFFF744FFC11B494535
:1005700001D916E08146A068C0F381000228F3D1BA
:1005800017E000BFFFF736FFC11B494509D8A06837
:1005900010F00C0FF6D10CE0FFF72CFFC11B494502
:1005A00002D90320BDE8F087A068C0F381000128CC
:1005B000F2D12878800705D5A068A96820F0F0005E
:1005C0000843A060D8F80010404601F00701B1428E
:1005D0000BD9016821F0070131430160006800F088
:1005E0000700B04201D00120DCE72878400705D59C
:1005F000A068E96820F4E0600843A060287800075C
:1006000006D5A068296920F4605040EAC100A060C6
:1006100000F016F8A168084AC1F30311515CC84004
:10062000064908600F20FFF7FFFE0020BAE7000030
:1006300000200240001002405C0D00080000002075
:1006400030B52D49002318468A682C4C12F00C0F47
:100650004FEA640514D08A68C2F38102032A04D1E8
:10066000CA6802F00302012A0AD08A68C2F3810232
:10067000012A19D08A68C2F38102022A16D016E034
:100680000A68120704D4D1F89420C2F3032202E0CE
:100690000A68C2F303121A4B53F822308A6812F028
:1006A0000C0F04D1184602E0204600E028468A6874
:1006B000C2F38102032A1DD1C868CA6800F0030092
:1006C000C2F30212521C022804D0032805D0B3FB47
:1006D000F2F004E0B4FBF2F001E0B5FBF2F0CA681E
:1006E000C968C2F306225043C1F34161491C490065
:1006F000B0FBF1F030BD0000001002400024F40017
:100700006C0D00082DE9F84304460078FE4DC00644
:100710005DD5A86810F00C0F0AD0A06900282868E1
:1007200071D040F001002860FFF764FE064654E0F7
:100730002868800702D5A06900287DD0216A286832
:10074000000703D5286800F0F00004E0D5F8940015
:10075000F02202EA1010814216D9084600F02EFA63
:10076000002869D1286840F0080028602868216ABC
:1007700020F0F000084328606868E16920F47F40B9
:1007800040EA0120686015E0286840F00800286011
:100790002868216A20F0F000084328606868E16951
:1007A00020F47F4040EA01206860206A00F006FAE9
:1007B0000028D6D1FFF744FFA968D44AC1F303113A
:1007C000515CC840D24908600F20FFF72DFE29E098
:1007D000FFF710FE801B02287ED828688007F7D517
:1007E000286840F0080028602868216A20F0F0009E
:1007F000084328606868E16920F47F4040EA0120EE
:1008000068600FE0FFE720F001002860FFF7F2FDCD
:10081000064604E0FFF7EEFD801B0228DCD82868BE
:100820008007F7D42078C0074AD0A868C0F38100B9
:1008300002281FD0A86800E098E0C0F381000328D8
:1008400003D1E868C043800714D06068B0F5803FEA
:1008500017D0B0F5A02F286817D020F4803028607A
:10086000286820F4802028606068E0B1FFF7C2FDAE
:10087000064614E02868800322D56068002875D0F9
:100880001EE0286840F48030EDE740F480202860C6
:10089000F7E700BFFFF7AEFD801B64289CD82868EF
:1008A0008003F7D50CE0FFF7A5FD064605E000BF85
:1008B000FFF7A0FD801B64288ED828688003F7D43A
:1008C0002078800742D5A868C0F38100012816D09F
:1008D000A868C0F3810000E0A9E0032804D1E8681B
:1008E00000F0030002280AD0E068002828681DD024
:1008F00040F480702860FFF77DFD06460BE0286815
:1009000040050BD5E0680028B9D007E0FFF772FD7D
:10091000801B0228C2D828684005F7D56868217C6A
:1009200020F0F85040EA016068600FE020F4807029
:100930002860FFF75FFD064605E000BFFFF75AFDA0
:10094000801B022873D828684005F7D42078000758
:1009500029D560690028D5F8940013D040F0010033
:10096000C5F89400FFF746FD064606E0FBE000BF31
:10097000FFF740FD801B022859D8D5F89400800766
:10098000F6D510E020F00100C5F89400FFF732FD25
:10099000064604E0FFF72EFD801B022847D8D5F855
:1009A00094008007F6D42078400763D5A86D002610
:1009B000C00008D4A86D40F08050A865A86D01263D
:1009C00000F08050009053480168C90511D40168B7
:1009D000804641F480710160FFF70CFD074604E09A
:1009E000FFF708FDC01B022821D8D8F80000C00579
:1009F000F6D5A068012815D00528D5F8900017D0A5
:100A000020F00100C5F89000D5F8900020F0040017
:100A1000C5F89000A06841F28838C8B1FFF7EAFC39
:100A2000074610E0D5F8900040F00100F0E777E0CD
:100A300040F00400C5F89000F4E700BFFFF7DAFCCF
:100A4000C11B41456CD8D5F890008007F6D50CE065
:100A5000FFF7D0FC074604E0FFF7CCFCC11B414583
:100A600079D8D5F890008007F6D41EB1A86D20F093
:100A70008050A865A06AE0B3A968C1F38101032989
:100A800072D00228286820F08070286011D0286871
:100A9000000106D42868800003D4E86820F0030031
:100AA000E860E8681C490840E860FFF7A3FC0446DA
:100AB00054E0FFF79FFC064605E000BFFFF79AFCF5
:100AC000801B022847D828688001F7D4206BE16A90
:100AD000000110380843616BA26B0902120941EA58
:100AE00042410843A18F0D4A490802EB4151084396
:100AF00000E036E094F840104908120102EB416131
:100B00000843E86028680CE0001002405C0D000813
:100B10000000002000700040FFFFEEFE0000E0FF3C
:100B200019E040F080702860E86840F08070E8606C
:100B3000FFF760FC044604E0FFF75CFC001B0228A2
:100B400009D828688001F7D50BE000BFFFF752FCF9
:100B5000001B022802D90320BDE8F8832868800121
:100B6000F4D40020F8E7FFE70120F5E710B5401EB8
:100B7000B0F1807F01D3012010BD4FF0E02460610F
:100B80000F21601700F009F80020A0610720206104
:100B9000002010BDFEE7FEE770470907090E002898
:100BA00006DA00F00F0000F1E02080F8141D704715
:100BB00000F1E02080F8001470477047F8B51C4D34
:100BC00006460024A86DC00002D5FFF775FC0DE0B5
:100BD000A86D40F08050A865A86D00F0805000908E
:100BE000FFF76AFCA96D21F08051A965B0F5007F7F
:100BF00004D0802E07D94FF003040AE0802E08D9D4
:100C0000A02E01D804E001D1022402E0702E00D110
:100C100001240848016821F00701214301600068B0
:100C200000F00700A04201D00120F8BD0020F8BD6F
:100C300000100240002002407047FFF7E1BB10B5F2
:100C400096B0142111A8FFF7C2FA44216846FFF7B5
:100C5000BEFA102000900120602100240690CDE90A
:100C600007410221CDE90A100C9028200D900720A1
:100C70000E900420CDE90F016846FFF743FD00B157
:100C8000FEE70F2011900320CDE9120414940421F3
:100C900011A81594FFF718FC002800D0FEE716B045
:100CA00010BD00000D48016841F4700101600C485E
:100CB000016841F001010160002181600268094B77
:100CC0001A4002608214C260026822F4802202602C
:100CD00081610249C00380390860704788ED00E0F7
:100CE00000100240FFFFF6EAFEE702E008C8121F0C
:100CF00008C1002AFAD170477047002001E001C105
:100D0000121F002AFBD1704708B5FFF781FBFFF7E0
:100D100096FF1048C16C41F00101C164C06C012113
:100D200000F0010000900C484FF090444160816059
:100D30000321C1602021016001462046FFF774FABB
:100D40004FF4967520212046FFF750FB2846FFF709
:100D50005DFAF7E7001002400800002000000000E4
:100D6000000000000102030406070809A086010034
:100D7000400D0300801A060000350C0040420F00B1
:100D800080841E0000093D0000127A000024F40057
:100D900000366E010048E801006CDC02BC0D000862
:100DA0000000002008000000EA0C0008C40D000844
:100DB0000800002018040000FA0C000800093D009B
:040DC000000000002F
:040000050800018965
:00000001FF
